000LOGOS LOGISTICA E TRANSPORTES PLANEInterg Com e Dist De Alimentos Ltda2305171240COB230512400                                                                           
350COBRA230512401                                                                                                                                                         
35167506105000198LOGOS LOGISTICA E TRANSPORTES PLANE                                                                                                                      
35200000000030FAT00000276781905201725052017000000010161330FAT00000000000014400000000000000025052017000000000000000BANCO BRADESCO S.A.                3390199200     3 I   
353MATRIZ    1    221263      00000000000120513052017108295060001616611195600017967506105000198                                                                           
354NFE797623  11052017000135500000000003052810829506000161                                                                                                                
353MATRIZ    1    213241      00000000000731603052017108295060001616240196300015467506105000198                                                                           
354NFE791337  29042017000751800000000018523210829506000161                                                                                                                
353MATRIZ    1    215206      00000000001976804052017108295060001616240196300015467506105000198                                                                           
354NFE793004  04052017002551400000000050047010829506000161                                                                                                                
353MATRIZ    1    218672      00000000000127910052017108295060001616027274700012067506105000198                                                                           
354NFE795109  08052017000242400000000003240010829506000161                                                                                                                
353MATRIZ    1    217579      00000000000279907052017108295060001616027274700012067506105000198                                                                           
354NFE794429  06052017000258700000000007087210829506000161                                                                                                                
353MATRIZ    1    217580      00000000000432307052017108295060001616027274700012067506105000198                                                                           
354NFE794430  06052017000259800000000010946010829506000161                                                                                                                
353MATRIZ    1    217563      00000000000784007052017108295060001616027274700012067506105000198                                                                           
354NFE794455  06052017000591800000000019849410829506000161                                                                                                                
353MATRIZ    1    217605      00000000000842207052017108295060001616027274700012067506105000198                                                                           
354NFE794475  06052017000498200000000021324010829506000161                                                                                                                
353MATRIZ    1    217566      00000000000862307052017108295060001616027274700012067506105000198                                                                           
354NFE794449  06052017001212200000000021832810829506000161                                                                                                                
353MATRIZ    1    218742      00000000001404410052017108295060001616027274700012067506105000198                                                                           
354NFE795802  09052017001494400000000035556010829506000161                                                                                                                
353MATRIZ    1    218760      00000000002121310052017108295060001616027274700012067506105000198                                                                           
354NFE795827  09052017003090700000000053706010829506000161                                                                                                                
353MATRIZ    1    217587      00000000002968607052017108295060001616027274700012067506105000198                                                                           
354NFE794440  06052017003733900000000075154810829506000161                                                                                                                
353MATRIZ    1    216493      00000000000049806052017108295060001610497248600018067506105000198                                                                           
354NFE794007  05052017000080000000000001262410829506000161                                                                                                                
353MATRIZ    1    217606      00000000000381207052017108295060001610028655700013067506105000198                                                                           
354NFE794468  06052017000341700000000009653010829506000161                                                                                                                
353MATRIZ    1    218671      00000000000127910052017108295060001615334525200011967506105000198                                                                           
354NFE795107  08052017000242400000000003240010829506000161                                                                                                                
353MATRIZ    1    217588      00000000000559607052017108295060001615334525200011967506105000198                                                                           
354NFE794442  06052017000429200000000014169310829506000161                                                                                                                
353MATRIZ    1    217578      00000000000598507052017108295060001615334525200011967506105000198                                                                           
354NFE794428  06052017000318100000000015153610829506000161                                                                                                                
353MATRIZ    1    217589      00000000000936507052017108295060001615334525200011967506105000198                                                                           
354NFE794444  06052017001392000000000023710810829506000161                                                                                                                
353MATRIZ    1    217505      00000000002054807052017108295060001615334525200011967506105000198                                                                           
354NFE794434  06052017002378600000000052022410829506000161                                                                                                                
353MATRIZ    1    216520      00000000000292106052017108295060001610900087000013567506105000198                                                                           
354NFE794046  05052017000099300000000007396810829506000161                                                                                                                
353MATRIZ    1    218471      00000000000523610052017108295060001610900087000013567506105000198                                                                           
354NFE795396  09052017000299400000000013256010829506000161                                                                                                                
353MATRIZ    1    218624      00000000000602910052017108295060001610900087000013567506105000198                                                                           
354NFE795911  09052017000841200000000015264010829506000161                                                                                                                
353MATRIZ    1    216519      00000000000646506052017108295060001610900087000013567506105000198                                                                           
354NFE794045  05052017000717800000000016368610829506000161                                                                                                                
353MATRIZ    1    217437      00000000001022307052017108295060001610900087000013567506105000198                                                                           
354NFE794608  06052017000442200000000025883410829506000161                                                                                                                
353MATRIZ    1    216517      00000000002049906052017108295060001610900087000013567506105000198                                                                           
354NFE794043  05052017002523600000000051897610829506000161                                                                                                                
353MATRIZ    1    217401      00000000000061807052017108295060001610922640600016167506105000198                                                                           
354NFE794235  05052017000043200000000001564810829506000161                                                                                                                
353MATRIZ    1    218737      00000000000081910052017108295060001610922640600016167506105000198                                                                           
354NFE795530  09052017000060000000000002074810829506000161                                                                                                                
353MATRIZ    1    216542      00000000000005606052017108295060001611198055900014167506105000198                                                                           
354NFE793588  04052017000001300000000000143310829506000161                                                                                                                
353MATRIZ    1    216310      00000000000081005052017108295060001611198055900014167506105000198                                                                           
354NFE793502  04052017000033000000000002050710829506000161                                                                                                                
353MATRIZ    1    221380      00000000000107013052017108295060001611375252300013667506105000198                                                                           
354NFE797199  10052017000155600000000002709610829506000161                                                                                                                
353MATRIZ    1    221866      00000000000057713052017108295060001611375252300021767506105000198                                                                           
354NFE798292  12052017000049100000000001461310829506000161                                                                                                                
353MATRIZ    1    217428      00000000000206007052017108295060001612170021200015167506105000198                                                                           
354NFE794595  06052017000057700000000005217610829506000161                                                                                                                
353MATRIZ    1    217421      00000000000208507052017108295060001612170021200015167506105000198                                                                           
354NFE794580  06052017000171500000000005280010829506000161                                                                                                                
353MATRIZ    1    218425      00000000000519710052017108295060001612170021200015167506105000198                                                                           
354NFE795338  09052017000772400000000013158010829506000161                                                                                                                
353MATRIZ    1    218582      00000000000754710052017108295060001612170021200015167506105000198                                                                           
354NFE795751  09052017000987700000000019106410829506000161                                                                                                                
353MATRIZ    1    218421      00000000000056110052017108295060001611100478300010667506105000198                                                                           
354NFE795334  09052017000079000000000001420810829506000161                                                                                                                
353MATRIZ    1    216438      00000000000129806052017108295060001611982512800011267506105000198                                                                           
354NFE793931  05052017000054900000000003286110829506000161                                                                                                                
353MATRIZ    1    218704      00000000000332610052017108295060001611545771300015667506105000198                                                                           
354NFE795419  09052017000312800000000008420810829506000161                                                                                                                
353MATRIZ    1    219943      00000000000193610052017108295060001612160314300016867506105000198                                                                           
354NFE796484  10052017000416300000000004903210829506000161                                                                                                                
353MATRIZ    1    217462      00000000000272407052017108295060001612160314300016867506105000198                                                                           
354NFE794554  06052017000121000000000006896410829506000161                                                                                                                
353MATRIZ    1    218746      00000000000138910052017108295060001615230333600012767506105000198                                                                           
354NFE795807  09052017000201800000000003518410829506000161                                                                                                                
353MATRIZ    1    216356      00000000000277005052017108295060001610068922200016367506105000198                                                                           
354NFE793581  04052017000053900000000007012810829506000161                                                                                                                
353MATRIZ    1    215213      00000000000603604052017108295060001615869988500014967506105000198                                                                           
354NFE793011  04052017000917100000000015282610829506000161                                                                                                                
353MATRIZ    1    220122      000000000006152100520171082950600016101627314857   67506105000198                                                                           
354ECF48288   10052017000755900000000015575310829506000161                                                                                                                
353MATRIZ    1    216296      000000000000252050520171082950600016110794335896   67506105000198                                                                           
354ECF51583   04052017000014000000000000639210829506000161                                                                                                                
353MATRIZ    1    217343      000000000000378070520171082950600016110794335896   67506105000198                                                                           
354ECF51709   06052017000021000000000000958810829506000161                                                                                                                
353MATRIZ    1    220105      000000000005294100520171082950600016181966547587   67506105000198                                                                           
354ECF48353   10052017000499000000000013403210829506000161                                                                                                                
353MATRIZ    1    217350      000000000001024070520171082950600016100649611845   67506105000198                                                                           
354ECF48069   06052017000097300000000002592910829506000161                                                                                                                
353MATRIZ    1    218410      00000000000005010052017108295060001611743058500018267506105000198                                                                           
354NFE795317  09052017000006300000000000089710829506000161                                                                                                                
353MATRIZ    1    218605      00000000000587210052017108295060001611743058500018267506105000198                                                                           
354NFE795794  09052017000886700000000014867410829506000161                                                                                                                
353MATRIZ    1    216360      00000000000123005052017108295060001610857623600018267506105000198                                                                           
354NFE793591  04052017000068300000000003116110829506000161                                                                                                                
353MATRIZ    1    219833      00000000000386310052017108295060001610857623600018267506105000198                                                                           
354NFE796763  10052017000334500000000009780010829506000161                                                                                                                
353MATRIZ    1    218785      00000000000574310052017108295060001610250338700012467506105000198                                                                           
354NFE795931  09052017000847900000000014540410829506000161                                                                                                                
353MATRIZ    1    216298      000000000002353050520171082950600016121361006889   67506105000198                                                                           
354ECF47966   04052017000450900000000005959210829506000161                                                                                                                
353MATRIZ    1    220073      000000000004285100520171082950600016121361006889   67506105000198                                                                           
354ECF51964   10052017000443700000000010849710829506000161                                                                                                                
353MATRIZ    1    218562      00000000000188310052017108295060001610349208600010567506105000198                                                                           
354NFE795730  09052017000150100000000004768810829506000161                                                                                                                
353MATRIZ    1    218344      00000000000186910052017108295060001610407030700011067506105000198                                                                           
354NFE795085  08052017000105000000000004734010829506000161                                                                                                                
353MATRIZ    1    218546      00000000000280210052017108295060001610407030700011067506105000198                                                                           
354NFE795710  09052017000104400000000007094710829506000161                                                                                                                
353MATRIZ    1    214851      00000000000101603052017108295060001615285805700012067506105000198                                                                           
354NFE792194  03052017000156000000000002572810829506000161                                                                                                                
353MATRIZ    1    218600      00000000000130110052017108295060001615285805700012067506105000198                                                                           
354NFE795780  09052017000220700000000003294010829506000161                                                                                                                
353MATRIZ    1    218500      00000000001095910052017108295060001615285805700012067506105000198                                                                           
354NFE795639  09052017001376100000000027746210829506000161                                                                                                                
353MATRIZ    1    218567      00000000001685710052017108295060001615285805700012067506105000198                                                                           
354NFE795735  09052017001897400000000042678010829506000161                                                                                                                
353MATRIZ    1    217565      00000000000073407052017108295060001610340330400019867506105000198                                                                           
354NFE794447  06052017000042000000000001860010829506000161                                                                                                                
353MATRIZ    1    217574      00000000000214807052017108295060001610340330400019867506105000198                                                                           
354NFE794463  06052017000187400000000005438710829506000161                                                                                                                
353MATRIZ    1    218710      00000000000113610052017108295060001611776339300027967506105000198                                                                           
354NFE795432  09052017000063000000000002876410829506000161                                                                                                                
353MATRIZ    1    216413      00000000000121006052017108295060001611776339300027967506105000198                                                                           
354NFE793735  05052017000058800000000003064810829506000161                                                                                                                
353MATRIZ    1    218684      00000000000207910052017108295060001611776339300027967506105000198                                                                           
354NFE795126  08052017000158500000000005265310829506000161                                                                                                                
353MATRIZ    1    216234      000000000012314050520171082950600016146570390597   67506105000198                                                                           
354ECF47912   04052017001564500000000031176410829506000161                                                                                                                
353MATRIZ    1    217402      00000000000073407052017108295060001611959306300012767506105000198                                                                           
354NFE794236  05052017000042000000000001860010829506000161                                                                                                                
353MATRIZ    1    217645      00000000000074707052017108295060001611959306300012767506105000198                                                                           
354NFE794401  06052017000088300000000001892410829506000161                                                                                                                
353MATRIZ    1    218507      00000000000097310052017108295060001611959306300012767506105000198                                                                           
354NFE795647  09052017000065600000000002464510829506000161                                                                                                                
353MATRIZ    1    221163      000000000002236130520171082950600016117716604813   67506105000198                                                                           
354ECF52000   10052017000244200000000005663110829506000161                                                                                                                
353MATRIZ    1    221393      00000000000289413052017108295060001611436795400014167506105000198                                                                           
354NFE797275  11052017000504700000000007328610829506000161                                                                                                                
353MATRIZ    1    217517      00000000000005007052017108295060001610514223300014267506105000198                                                                           
354NFE794647  06052017000006300000000000089710829506000161                                                                                                                
353MATRIZ    1    217488      00000000000069807052017108295060001610514223300014267506105000198                                                                           
354NFE794714  06052017000096600000000001767810829506000161                                                                                                                
353MATRIZ    1    217357      000000000004939070520171082950600016115525146843   67506105000198                                                                           
354ECF48090   06052017000427500000000012505810829506000161                                                                                                                
353MATRIZ    1    218652      00000000000061810052017108295060001610529064400018567506105000198                                                                           
354NFE794966  08052017000152600000000001566010829506000161                                                                                                                
353MATRIZ    1    218780      00000000001283710052017108295060001610529064400018567506105000198                                                                           
354NFE795919  09052017001453400000000032500610829506000161                                                                                                                
353MATRIZ    1    221174      000000000001408130520171082950600016133696036838   67506105000198                                                                           
354ECF48383   10052017000084000000000003566410829506000161                                                                                                                
353MATRIZ    1    217331      000000000001760070520171082950600016133696036838   67506105000198                                                                           
354ECF51659   05052017000105000000000004458010829506000161                                                                                                                
353MATRIZ    1    221162      000000000002465130520171082950600016133696036838   67506105000198                                                                           
354ECF51996   10052017000147000000000006241210829506000161                                                                                                                
353MATRIZ    1    216319      000000000008518050520171082950600016133696036838   67506105000198                                                                           
354ECF51604   04052017000512300000000021566410829506000161                                                                                                                
353MATRIZ    1    217468      00000000000333007052017108295060001617175463400018867506105000198                                                                           
354NFE794555  06052017000217600000000008431510829506000161                                                                                                                
353MATRIZ    1    217387      00000000000466807052017108295060001617175463400018867506105000198                                                                           
354NFE794195  05052017000222000000000011820010829506000161                                                                                                                
353MATRIZ    1    218712      00000000000074010052017108295060001615817068900018267506105000198                                                                           
354NFE795435  09052017000165100000000001875310829506000161                                                                                                                
353MATRIZ    1    218649      000000000005543100520171082950600016129457528832   67506105000198                                                                           
354ECF48206   09052017000424700000000014034210829506000161                                                                                                                
353MATRIZ    1    217394      00000000000177807052017108295060001612506148100017667506105000198                                                                           
354NFE794211  05052017000181900000000004502010829506000161                                                                                                                
353MATRIZ    1    218730      00000000000064010052017108295060001611286234300014467506105000198                                                                           
354NFE795491  09052017000128600000000001621810829506000161                                                                                                                
353MATRIZ    1    221224      00000000000131313052017108295060001610814608500012267506105000198                                                                           
354NFE797351  11052017000121900000000003324510829506000161                                                                                                                
353MATRIZ    1    215115      000000000003788040520171082950600016107734217850   67506105000198                                                                           
354ECF47951   04052017000339000000000009589910829506000161                                                                                                                
353MATRIZ    1    216597      00000000000166306052017108295060001610067610000013267506105000198                                                                           
354NFE793902  05052017000153500000000004210210829506000161                                                                                                                
353MATRIZ    1    216576      00000000000603206052017108295060001610067610000013267506105000198                                                                           
354NFE793854  05052017001008800000000015271210829506000161                                                                                                                
353MATRIZ    1    216587      00000000000615106052017108295060001610067610000013267506105000198                                                                           
354NFE793870  05052017000889900000000015574210829506000161                                                                                                                
353MATRIZ    1    228850      00000000001271419052017108295060001611027247300010067506105000198                                                                           
354NFE792808  03052017002700000000000030240010829506000161                                                                                                                
353MATRIZ    1    217611      00000000000664207052017108295060001611027247300010067506105000198                                                                           
354NFE794484  06052017000574000000000016816810829506000161                                                                                                                
353MATRIZ    1    215166      00000000001194404052017108295060001611027247300010067506105000198                                                                           
354NFE792808  03052017002700000000000030240010829506000161                                                                                                                
353MATRIZ    1    213091      000000000000996030520171082950600016105301826964   67506105000198                                                                           
354ECF47706   29042017000127000000000002523510829506000161                                                                                                                
353MATRIZ    1    215044      000000000001107040520171082950600016105301826964   67506105000198                                                                           
354ECF47857   03052017000075600000000002805010829506000161                                                                                                                
353MATRIZ    1    217455      00000000000134907052017108295060001616676548800015667506105000198                                                                           
354NFE794518  06052017000087800000000003416410829506000161                                                                                                                
353MATRIZ    1    218365      00000000000193610052017108295060001616676548800015667506105000198                                                                           
354NFE795186  08052017000417700000000004903210829506000161                                                                                                                
353MATRIZ    1    219827      00000000000059310052017108295060001610861892000018067506105000198                                                                           
354NFE796775  10052017000254400000000001502410829506000161                                                                                                                
353MATRIZ    1    219942      00000000000059310052017108295060001610861892000018067506105000198                                                                           
354NFE796486  10052017000254400000000001502410829506000161                                                                                                                
353MATRIZ    1    221190      00000000000174413052017108295060001610861892000018067506105000198                                                                           
354NFE797125  10052017000267800000000004416910829506000161                                                                                                                
353MATRIZ    1    218597      00000000000890610052017108295060001611742555600012267506105000198                                                                           
354NFE795774  09052017001103100000000022549210829506000161                                                                                                                
353MATRIZ    1    221177      000000000001201130520171082950600016104692569824   67506105000198                                                                           
354ECF48442   11052017000115800000000003042410829506000161                                                                                                                
353MATRIZ    1    218606      00000000000420810052017108295060001610479161700012367506105000198                                                                           
354NFE795850  09052017000425000000000010654210829506000161                                                                                                                
353MATRIZ    1    217342      000000000014279070520171082950600016154792568820   67506105000198                                                                           
354ECF51704   06052017001566400000000036150710829506000161                                                                                                                
353MATRIZ    1    214839      00000000000653903052017108295060001612693782400018667506105000198                                                                           
354NFE792181  03052017000449800000000016556710829506000161                                                                                                                
353MATRIZ    1    220085      000000000004262100520171082950600016103449982826   67506105000198                                                                           
354ECF51924   10052017000503500000000010790810829506000161                                                                                                                
353MATRIZ    1    220034      00000000000160510052017108295060001614499571000017467506105000198                                                                           
354NFE796205  09052017000199200000000004065810829506000161                                                                                                                
353MATRIZ    1    218312      000000000000415100520171082950600016102796136442   67506105000198                                                                           
354ECF48121   08052017000030000000000001052710829506000161                                                                                                                
353MATRIZ    1    218301      000000000008009100520171082950600016102796136442   67506105000198                                                                           
354ECF51796   09052017000453500000000020277010829506000161                                                                                                                
353MATRIZ    1    216345      000000000001638050520171082950600016196631724872   67506105000198                                                                           
354ECF48035   05052017000177600000000004148310829506000161                                                                                                                
353MATRIZ    1    217614      00000000000231007052017108295060001611921424500014067506105000198                                                                           
354NFE794479  06052017000218100000000005849110829506000161                                                                                                                
353MATRIZ    1    218735      00000000000093710052017108295060001610297093300013767506105000198                                                                           
354NFE795514  09052017000111200000000002374110829506000161                                                                                                                
353MATRIZ    1    218437      00000000000438510052017108295060001615679038900017067506105000198                                                                           
354NFE795354  09052017000651500000000011102910829506000161                                                                                                                
353MATRIZ    1    221378      00000000000111313052017108295060001614507206300019167506105000198                                                                           
354NFE797193  10052017000144200000000002820010829506000161                                                                                                                
353MATRIZ    1    220036      00000000000005210052017108295060001610246343700019767506105000198                                                                           
354NFE796202  09052017000006300000000000134110829506000161                                                                                                                
353MATRIZ    1    219903      00000000000162010052017108295060001610246343700019767506105000198                                                                           
354NFE796556  10052017000169700000000004103110829506000161                                                                                                                
353MATRIZ    1    221876      00000000000222713052017108295060001610596905200019467506105000198                                                                           
354NFE798379  12052017000338000000000005639210829506000161                                                                                                                
353MATRIZ    1    218292      00000000000049610052017108295060001610279195000010767506105000198                                                                           
354NFE794902  08052017000102100000000001256210829506000161                                                                                                                
353MATRIZ    1    218374      00000000000096310052017108295060001610279195000010767506105000198                                                                           
354NFE795203  08052017000177800000000002439210829506000161                                                                                                                
353MATRIZ    1    221349      000000000004382130520171082950600016165640250844   67506105000198                                                                           
354ECF52090   11052017000543400000000011094810829506000161                                                                                                                
353MATRIZ    1    216503      00000000000559306052017108295060001611549766500012067506105000198                                                                           
354NFE794027  05052017000448100000000014161410829506000161                                                                                                                
353MATRIZ    1    218409      00000000000010610052017108295060001616100589800018567506105000198                                                                           
354NFE795314  09052017000018900000000000269110829506000161                                                                                                                
353MATRIZ    1    218401      00000000000273110052017108295060001616100589800018567506105000198                                                                           
354NFE795305  09052017000200600000000006915610829506000161                                                                                                                
353MATRIZ    1    219761      00000000000509810052017108295060001616100589800018567506105000198                                                                           
354NFE796966  10052017001061200000000012908810829506000161                                                                                                                
353MATRIZ    1    218644      000000000005697100520171082950600016135698080844   67506105000198                                                                           
354ECF48195   09052017000486600000000014424010829506000161                                                                                                                
353MATRIZ    1    216235      000000000015502050520171082950600016100491025831   67506105000198                                                                           
354ECF47921   04052017001672400000000039246210829506000161                                                                                                                
353MATRIZ    1    217441      00000000000553607052017108295060001610630032000014367506105000198                                                                           
354NFE794601  06052017001224000000000014016010829506000161                                                                                                                
353MATRIZ    1    218689      00000000000610310052017108295060001614316751900017167506105000198                                                                           
354NFE795144  08052017000427600000000015450810829506000161                                                                                                                
353MATRIZ    1    219954      00000000000283610052017108295060001614571892100012267506105000198                                                                           
354NFE796449  10052017000333700000000007180110829506000161                                                                                                                
353MATRIZ    1    216433      00000000000218606052017108295060001614342836600017967506105000198                                                                           
354NFE793919  05052017000489900000000005536610829506000161                                                                                                                
353MATRIZ    1    218687      00000000000048010052017108295060001610117754600018567506105000198                                                                           
354NFE795135  08052017000072000000000001216810829506000161                                                                                                                
353MATRIZ    1    221418      00000000000094313052017108295060001610117754600018567506105000198                                                                           
354NFE797427  11052017000057300000000002388010829506000161                                                                                                                
353MATRIZ    1    219789      00000000000616310052017108295060001610117754600018567506105000198                                                                           
354NFE796910  10052017000565100000000015603610829506000161                                                                                                                
353MATRIZ    1    218787      00000000001339210052017108295060001610117754600018567506105000198                                                                           
354NFE795941  09052017002476800000000033904810829506000161                                                                                                                
353MATRIZ    1    218534      00000000000150410052017108295060001610777396200012267506105000198                                                                           
354NFE795687  09052017000073800000000003810010829506000161                                                                                                                
353MATRIZ    1    221329      00000000000590213052017108295060001615992016500012467506105000198                                                                           
354NFE797860  11052017000724000000000014943610829506000161                                                                                                                
353MATRIZ    1    218699      00000000000144110052017108295060001614350057800011067506105000198                                                                           
354NFE795411  09052017000147800000000003649610829506000161                                                                                                                
353MATRIZ    1    221438      00000000000242813052017108295060001614350057800011067506105000198                                                                           
354NFE797573  11052017000238600000000006147010829506000161                                                                                                                
353MATRIZ    1    216367      00000000000093605052017108295060001614548574500012667506105000198                                                                           
354NFE793614  04052017000060000000000002371110829506000161                                                                                                                
353MATRIZ    1    217466      00000000000281907052017108295060001610061645900011467506105000198                                                                           
354NFE794557  06052017000356200000000007137610829506000161                                                                                                                
353MATRIZ    1    219971      00000000000135610052017108295060001611696031400017667506105000198                                                                           
354NFE796395  10052017000099000000000003433510829506000161                                                                                                                
353MATRIZ    1    221267      00000000000149413052017108295060001610573770900019867506105000198                                                                           
354NFE797652  11052017000177600000000003784310829506000161                                                                                                                
353MATRIZ    1    215182      00000000000367704052017108295060001610573770900019867506105000198                                                                           
354NFE792935  04052017000643500000000009309610829506000161                                                                                                                
353MATRIZ    1    216558      00000000000742906052017108295060001612037615300014567506105000198                                                                           
354NFE793796  05052017000966400000000018809110829506000161                                                                                                                
353MATRIZ    1    219967      00000000000127610052017108295060001611696031400025767506105000198                                                                           
354NFE796402  10052017000080000000000003232810829506000161                                                                                                                
353MATRIZ    1    221316      00000000000105713052017108295060001615389363200035067506105000198                                                                           
354NFE797835  11052017000234000000000002676010829506000161                                                                                                                
353MATRIZ    1    221288      00000000000286613052017108295060001615389363200035067506105000198                                                                           
354NFE797709  11052017000168300000000007258010829506000161                                                                                                                
353MATRIZ    1    221279      00000000000476113052017108295060001615389363200019867506105000198                                                                           
354NFE797692  11052017000227400000000012055610829506000161                                                                                                                
353MATRIZ    1    221885      00000000000005313052017108295060001610821176800011667506105000198                                                                           
354NFE798416  12052017000006300000000000134710829506000161                                                                                                                
353MATRIZ    1    221869      00000000000146913052017108295060001610821176800011667506105000198                                                                           
354NFE798303  12052017000168900000000003720110829506000161                                                                                                                
353MATRIZ    1    219963      00000000000386110052017108295060001610574302700019867506105000198                                                                           
354NFE796410  10052017000468100000000009774710829506000161                                                                                                                
353MATRIZ    1    217324      00000000000043207052017108295060001610634345700018567506105000198                                                                           
354NFE794114  05052017000017200000000001095010829506000161                                                                                                                
353MATRIZ    1    216518      00000000000723606052017108295060001610634345700018567506105000198                                                                           
354NFE794044  05052017000349100000000018320410829506000161                                                                                                                
353MATRIZ    1    216376      00000000000044205052017108295060001616593563700011567506105000198                                                                           
354NFE793644  04052017000081300000000001120610829506000161                                                                                                                
353MATRIZ    1    216430      00000000000602306052017108295060001610608757200048967506105000198                                                                           
354NFE793895  05052017000935200000000015249610829506000161                                                                                                                
353MATRIZ    1    221304      00000000000099813052017108295060001610321308300019567506105000198                                                                           
354NFE797816  11052017000023300000000002528410829506000161                                                                                                                
353MATRIZ    1    219877      00000000000186810052017108295060001616213728600010967506105000198                                                                           
354NFE796638  10052017000111700000000004731610829506000161                                                                                                                
353MATRIZ    1    220081      000000000000674100520171082950600016109466699881   67506105000198                                                                           
354ECF51937   10052017000069400000000001708810829506000161                                                                                                                
353MATRIZ    1    215111      000000000002638040520171082950600016109466699881   67506105000198                                                                           
354ECF47940   04052017000126900000000006678610829506000161                                                                                                                
353MATRIZ    1    218438      00000000000132710052017108295060001610149847600156267506105000198                                                                           
354NFE795355  09052017000048700000000003359910829506000161                                                                                                                
353MATRIZ    1    217376      00000000000075107052017108295060001612516240200011367506105000198                                                                           
354NFE794180  05052017000042000000000001903210829506000161                                                                                                                
353MATRIZ    1    216567      00000000000783106052017108295060001612516240200011367506105000198                                                                           
354NFE793831  05052017000964500000000019826210829506000161                                                                                                                
353MATRIZ    1    216372      00000000000060105052017108295060001615310948400017867506105000198                                                                           
354NFE793627  04052017000113900000000001521610829506000161                                                                                                                
353MATRIZ    1    218363      00000000000108010052017108295060001615310948400017867506105000198                                                                           
354NFE795184  08052017000231200000000002736010829506000161                                                                                                                
353MATRIZ    1    221323      00000000002281613052017108295060001611541331000010567506105000198                                                                           
354NFE797851  11052017003759500000000057764010829506000161                                                                                                                
353MATRIZ    1    216569      00000000000212406052017108295060001615675642200014667506105000198                                                                           
354NFE793838  05052017000549700000000005378410829506000161                                                                                                                
353MATRIZ    1    221492      00000000000914113052017108295060001612269857800010467506105000198                                                                           
354NFE797782  11052017000691600000000023143010829506000161                                                                                                                
353MATRIZ    1    220113      000000000003243100520171082950600016122989514899   67506105000198                                                                           
354ECF48326   10052017000498700000000008210810829506000161                                                                                                                
353MATRIZ    1    220047      00000000000050110052017108295060001616917249200010767506105000198                                                                           
354NFE796185  09052017000122400000000001268810829506000161                                                                                                                
353MATRIZ    1    217597      00000000000064707052017108295060001616917249200010767506105000198                                                                           
354NFE794485  06052017000089400000000001639810829506000161                                                                                                                
353MATRIZ    1    219767      00000000000329310052017108295060001616917249200010767506105000198                                                                           
354NFE796957  10052017000754900000000008337010829506000161                                                                                                                
353MATRIZ    1    217460      00000000000442007052017108295060001610945457700049067506105000198                                                                           
354NFE794511  06052017000752900000000011192110829506000161                                                                                                                
353MATRIZ    1    216481      00000000000534906052017108295060001610945457700057167506105000198                                                                           
354NFE793993  05052017000696200000000013542310829506000161                                                                                                                
353MATRIZ    1    221311      00000000001350913052017108295060001611177247500011267506105000198                                                                           
354NFE797827  11052017002060800000000034201510829506000161                                                                                                                
353MATRIZ    1    217424      00000000000218407052017108295060001614330744600017667506105000198                                                                           
354NFE794577  06052017000293800000000005531610829506000161                                                                                                                
353MATRIZ    1    217601      00000000000680807052017108295060001611234492900011767506105000198                                                                           
354NFE794502  06052017000952900000000017236710829506000161                                                                                                                
353MATRIZ    1    221351      000000000001063130520171082950600016101062592883   67506105000198                                                                           
354ECF48399   11052017000186400000000002691610829506000161                                                                                                                
353MATRIZ    1    216564      00000000000309806052017108295060001610260147200012567506105000198                                                                           
354NFE793805  05052017000395000000000007845410829506000161                                                                                                                
353MATRIZ    1    219787      00000000001004510052017108295060001611559639000018167506105000198                                                                           
354NFE796913  10052017001744200000000025431610829506000161                                                                                                                
353MATRIZ    1    219795      00000000001014110052017108295060001611559639000018167506105000198                                                                           
354NFE796890  10052017001191600000000025674010829506000161                                                                                                                
353MATRIZ    1    221391      00000000002549613052017108295060001616111682800010267506105000198                                                                           
354NFE797262  11052017003960000000000064548010829506000161                                                                                                                
353MATRIZ    1    216510      00000000000091606052017108295060001612288243100016167506105000198                                                                           
354NFE794035  05052017000180200000000002319610829506000161                                                                                                                
353MATRIZ    1    216497      00000000000131306052017108295060001612288243100016167506105000198                                                                           
354NFE794015  05052017000403600000000003326410829506000161                                                                                                                
353MATRIZ    1    216595      00000000001261406052017108295060001610141045300015967506105000198                                                                           
354NFE793898  05052017001665000000000031934610829506000161                                                                                                                
353MATRIZ    1    218318      000000000004080100520171082950600016100898241804   67506105000198                                                                           
354ECF48189   09052017000321000000000010330510829506000161                                                                                                                
353MATRIZ    1    207888      000000000003750280420171082950600016133771268800   67506105000198                                                                           
354ECF51071   27042017000337500000000009494510829506000161                                                                                                                
353MATRIZ    1    215120      000000000001730040520171082950600016115019939846   67506105000198                                                                           
354ECF47957   04052017000053300000000004381610829506000161                                                                                                                
353MATRIZ    1    215041      000000000002370040520171082950600016115019939846   67506105000198                                                                           
354ECF51472   03052017000419500000000006001210829506000161                                                                                                                
353MATRIZ    1    217352      000000000004247070520171082950600016105861536830   67506105000198                                                                           
354ECF48071   06052017000664100000000010752010829506000161                                                                                                                
353MATRIZ    1    217335      000000000006123070520171082950600016105861536830   67506105000198                                                                           
354ECF51680   06052017001173400000000015501610829506000161                                                                                                                
353MATRIZ    1    219878      00000000000297610052017108295060001611416032300015767506105000198                                                                           
354NFE796635  10052017000310400000000007535210829506000161                                                                                                                
353MATRIZ    1    218703      00000000000131410052017108295060001616902394300013667506105000198                                                                           
354NFE795416  09052017000145000000000003328210829506000161                                                                                                                
353MATRIZ    1    220012      00000000000100810052017108295060001610050499600017267506105000198                                                                           
354NFE796260  09052017000106500000000002554210829506000161                                                                                                                
353MATRIZ    1    218436      00000000000074910052017108295060001611077708000014067506105000198                                                                           
354NFE795353  09052017000042000000000001898410829506000161                                                                                                                
353MATRIZ    1    216488      00000000000137006052017108295060001611077708000014067506105000198                                                                           
354NFE794001  05052017000137500000000003470310829506000161                                                                                                                
353MATRIZ    1    217612      00000000000268207052017108295060001616750686500010367506105000198                                                                           
354NFE794476  06052017000148800000000006791510829506000161                                                                                                                
353MATRIZ    1    218287      00000000000302910052017108295060001616750686500010367506105000198                                                                           
354NFE794892  08052017000168000000000007670410829506000161                                                                                                                
353MATRIZ    1    218728      00000000001255610052017108295060001616750686500010367506105000198                                                                           
354NFE795481  09052017002748600000000031789210829506000161                                                                                                                
353MATRIZ    1    219902      00000000000494010052017108295060001616830963200017567506105000198                                                                           
354NFE796557  10052017000248100000000012507710829506000161                                                                                                                
353MATRIZ    1    221248      00000000000228613052017108295060001610554360000011067506105000198                                                                           
354NFE797516  11052017000432400000000005787610829506000161                                                                                                                
353MATRIZ    1    219995      00000000000230310052017108295060001612415595100010667506105000198                                                                           
354NFE796340  09052017000275600000000005832910829506000161                                                                                                                
353MATRIZ    1    219885      00000000000077010052017108295060001610469076900013067506105000198                                                                           
354NFE796621  10052017000099100000000001950010829506000161                                                                                                                
353MATRIZ    1    217356      000000000008859070520171082950600016156961855849   67506105000198                                                                           
354ECF48087   06052017000718600000000022428710829506000161                                                                                                                
353MATRIZ    1    216500      00000000000141206052017108295060001610723435900017267506105000198                                                                           
354NFE794021  05052017000619800000000003575410829506000161                                                                                                                
353MATRIZ    1    217370      00000000000335107052017108295060001612354205600017367506105000198                                                                           
354NFE794164  05052017000340400000000008484710829506000161                                                                                                                
353MATRIZ    1    217359      000000000001102070520171082950600016107725686851   67506105000198                                                                           
354ECF48099   06052017000063000000000002790010829506000161                                                                                                                
353MATRIZ    1    217345      000000000011385070520171082950600016107725686851   67506105000198                                                                           
354ECF51713   06052017001012600000000028823410829506000161                                                                                                                
353MATRIZ    1    216341      000000000008317050520171082950600016131413951872   67506105000198                                                                           
354ECF48031   05052017001204900000000021055810829506000161                                                                                                                
353MATRIZ    1    215055      00000000000152804052017108295060001612061558700015067506105000198                                                                           
354NFE792611  03052017000209200000000003869310829506000161                                                                                                                
353MATRIZ    1    219775      00000000000445210052017108295060001611478903400011167506105000198                                                                           
354NFE796943  10052017000489600000000011273310829506000161                                                                                                                
353MATRIZ    1    221305      00000000000319413052017108295060001610575855800015467506105000198                                                                           
354NFE797818  11052017000639300000000008086210829506000161                                                                                                                
353MATRIZ    1    220079      000000000002370100520171082950600016113214665871   67506105000198                                                                           
354ECF51939   10052017000273400000000006001610829506000161                                                                                                                
353MATRIZ    1    216328      000000000001182050520171082950600016103111414809   67506105000198                                                                           
354ECF51648   05052017000035000000000002993410829506000161                                                                                                                
353MATRIZ    1    220069      000000000010677100520171082950600016105627987812   67506105000198                                                                           
354ECF51985   10052017000962200000000027032110829506000161                                                                                                                
353MATRIZ    1    215153      00000000000162504052017108295060001612515358200017767506105000198                                                                           
354NFE792752  03052017000215000000000004114810829506000161                                                                                                                
353MATRIZ    1    219947      00000000000106010052017108295060001612654067100013967506105000198                                                                           
354NFE796467  10052017000128500000000002684010829506000161                                                                                                                
353MATRIZ    1    220078      000000000002656100520171082950600016112683082851   67506105000198                                                                           
354ECF51946   10052017000479800000000006724210829506000161                                                                                                                
353MATRIZ    1    216533      000000000001852060520171082950600016124654881808   67506105000198                                                                           
354ECF51625   05052017000246200000000004690010829506000161                                                                                                                
353MATRIZ    1    216326      000000000001978050520171082950600016149432753891   67506105000198                                                                           
354ECF51646   05052017000184800000000005009610829506000161                                                                                                                
353MATRIZ    1    216322      000000000003578050520171082950600016175730561687   67506105000198                                                                           
354ECF51619   05052017000750300000000009060510829506000161                                                                                                                
353MATRIZ    1    215096      000000000022199040520171082950600016122546414844   67506105000198                                                                           
354ECF51575   04052017003779600000000056201910829506000161                                                                                                                
353MATRIZ    1    216332      000000000002272050520171082950600016111220654850   67506105000198                                                                           
354ECF47978   04052017000126000000000005752810829506000161                                                                                                                
353MATRIZ    1    218778      00000000000805810052017108295060001610412999200010267506105000198                                                                           
354NFE795885  09052017001212700000000020400010829506000161                                                                                                                
353MATRIZ    1    218769      00000000000860610052017108295060001610412999200010267506105000198                                                                           
354NFE795844  09052017000476800000000021787810829506000161                                                                                                                
353MATRIZ    1    220114      000000000001125100520171082950600016113294517831   67506105000198                                                                           
354ECF48325   10052017000043200000000002850110829506000161                                                                                                                
353MATRIZ    1    218680      00000000000059510052017108295060001610074534300034767506105000198                                                                           
354NFE795122  08052017000097000000000001507210829506000161                                                                                                                
353MATRIZ    1    218681      00000000000059510052017108295060001610074534300018567506105000198                                                                           
354NFE795123  08052017000097000000000001507210829506000161                                                                                                                
353MATRIZ    1    218690      00000000000059510052017108295060001610074534300042867506105000198                                                                           
354NFE795146  08052017000097000000000001507210829506000161                                                                                                                
353MATRIZ    1    217593      00000000000064907052017108295060001610074534300042867506105000198                                                                           
354NFE794487  06052017000064100000000001645210829506000161                                                                                                                
353MATRIZ    1    221466      00000000000107613052017108295060001610074534300018567506105000198                                                                           
354NFE797725  11052017000160300000000002726410829506000161                                                                                                                
353MATRIZ    1    221484      00000000000130213052017108295060001610074534300042867506105000198                                                                           
354NFE797756  11052017000139600000000003297610829506000161                                                                                                                
353MATRIZ    1    221468      00000000000131513052017108295060001610074534300026667506105000198                                                                           
354NFE797729  11052017000069300000000003330010829506000161                                                                                                                
353MATRIZ    1    217613      00000000000157207052017108295060001610074534300026667506105000198                                                                           
354NFE794477  06052017000155800000000003980410829506000161                                                                                                                
353MATRIZ    1    217616      00000000000191407052017108295060001610074534300018567506105000198                                                                           
354NFE794481  06052017000192800000000004846210829506000161                                                                                                                
353MATRIZ    1    217458      00000000000203607052017108295060001610074534300034767506105000198                                                                           
354NFE794514  06052017000245900000000005156910829506000161                                                                                                                
353MATRIZ    1    221477      00000000000215313052017108295060001610074534300034767506105000198                                                                           
354NFE797741  11052017000324400000000005452810829506000161                                                                                                                
353MATRIZ    1    228845      00000000000663919052017108295060001611045430300013867506105000198                                                                           
354NFE794634  06052017001229000000000014980810829506000161                                                                                                                
353MATRIZ    1    215052      00000000000436204052017108295060001611045430300013867506105000198                                                                           
354NFE792590  03052017000252000000000011044810829506000161                                                                                                                
353MATRIZ    1    217510      00000000000591707052017108295060001611045430300013867506105000198                                                                           
354NFE794634  06052017001229000000000014980810829506000161                                                                                                                
353MATRIZ    1    219768      00000000005918010052017108295060001611466169000021567506105000198                                                                           
354NFE796956  10052017006216800000000149823110829506000161                                                                                                                
353MATRIZ    1    220060      00000000000176510052017108295060001610959035900013067506105000198                                                                           
354NFE796147  09052017000188100000000004469210829506000161                                                                                                                
353MATRIZ    1    218276      00000000000085210052017108295060001610726751700019067506105000198                                                                           
354NFE794879  08052017000193000000000002157610829506000161                                                                                                                
353MATRIZ    1    218739      00000000000302110052017108295060001610726751700019067506105000198                                                                           
354NFE795799  09052017000243900000000007649210829506000161                                                                                                                
353MATRIZ    1    218501      00000000000250810052017108295060001610516275300011767506105000198                                                                           
354NFE795640  09052017000550800000000006350410829506000161                                                                                                                
353MATRIZ    1    217450      00000000000277107052017108295060001610516275300011767506105000198                                                                           
354NFE794533  06052017000483400000000007016410829506000161                                                                                                                
353MATRIZ    1    217451      00000000000786007052017108295060001610516275300011767506105000198                                                                           
354NFE794529  06052017000641200000000019900810829506000161                                                                                                                
353MATRIZ    1    218756      00000000000158310052017108295060001611068515200012967506105000198                                                                           
354NFE795822  09052017000247300000000004008610829506000161                                                                                                                
353MATRIZ    1    218764      00000000000934710052017108295060001610194484400015367506105000198                                                                           
354NFE795834  09052017000790900000000023663410829506000161                                                                                                                
353MATRIZ    1    216454      00000000000481206052017108295060001610964680100036567506105000198                                                                           
354NFE793953  05052017000384700000000012184810829506000161                                                                                                                
353MATRIZ    1    216440      00000000001135506052017108295060001610964680100010167506105000198                                                                           
354NFE793934  05052017001276700000000028748610829506000161                                                                                                                
353MATRIZ    1    218385      00000000000225210052017108295060001610960951300025067506105000198                                                                           
354NFE795274  09052017000350200000000005703610829506000161                                                                                                                
353MATRIZ    1    216424      00000000000257306052017108295060001610960951300025067506105000198                                                                           
354NFE793866  05052017000203400000000006515110829506000161                                                                                                                
353MATRIZ    1    221250      00000000000290613052017108295060001610443884500011467506105000198                                                                           
354NFE797541  11052017000275100000000007359310829506000161                                                                                                                
353MATRIZ    1    214800      00000000000075603052017108295060001611113247400037567506105000198                                                                           
354NFE791997  02052017000115200000000001915210829506000161                                                                                                                
353MATRIZ    1    217537      00000000000079007052017108295060001611113247400045667506105000198                                                                           
354NFE794652  06052017000145400000000002001610829506000161                                                                                                                
353MATRIZ    1    217552      00000000000079007052017108295060001611113247400029467506105000198                                                                           
354NFE794376  06052017000145400000000002001610829506000161                                                                                                                
353MATRIZ    1    218384      00000000000089510052017108295060001611113247400029467506105000198                                                                           
354NFE795270  09052017000208500000000002267410829506000161                                                                                                                
353MATRIZ    1    218331      00000000000112110052017108295060001611113247400037567506105000198                                                                           
354NFE794974  08052017000275600000000002839810829506000161                                                                                                                
353MATRIZ    1    217555      00000000000113007052017108295060001611113247400029467506105000198                                                                           
354NFE794360  06052017000335700000000002862010829506000161                                                                                                                
353MATRIZ    1    218654      00000000000157310052017108295060001611113247400045667506105000198                                                                           
354NFE794981  08052017000409900000000003984610829506000161                                                                                                                
353MATRIZ    1    217372      00000000000198507052017108295060001611113247400037567506105000198                                                                           
354NFE794174  05052017000544200000000005025610829506000161                                                                                                                
353MATRIZ    1    217534      00000000000226007052017108295060001611113247400045667506105000198                                                                           
354NFE794665  06052017000671400000000005724010829506000161                                                                                                                
353MATRIZ    1    214842      00000000000264703052017108295060001611113247400029467506105000198                                                                           
354NFE792185  03052017000402700000000006703210829506000161                                                                                                                
353MATRIZ    1    218481      00000000000461210052017108295060001611113247400029467506105000198                                                                           
354NFE795610  09052017000582000000000011677210829506000161                                                                                                                
353MATRIZ    1    218483      00000000001159910052017108295060001611113247400029467506105000198                                                                           
354NFE795618  09052017002601700000000029366410829506000161                                                                                                                
353MATRIZ    1    216426      00000000000074206052017108295060001610032495800013867506105000198                                                                           
354NFE793879  05052017000056100000000001879410829506000161                                                                                                                
353MATRIZ    1    216308      00000000000041805052017108295060001610298960200030067506105000198                                                                           
354NFE793494  04052017000015400000000001060010829506000161                                                                                                                
353MATRIZ    1    216566      00000000000063906052017108295060001610298960200014967506105000198                                                                           
354NFE793828  05052017000053200000000001618210829506000161                                                                                                                
353MATRIZ    1    216303      00000000000071805052017108295060001610893649000022567506105000198                                                                           
354NFE793487  04052017000039400000000001819210829506000161                                                                                                                
353MATRIZ    1    217540      00000000000205707052017108295060001610844612600010467506105000198                                                                           
354NFE794649  06052017000110900000000005208610829506000161                                                                                                                
353MATRIZ    1    216253      00000000000220405052017108295060001611923193100012967506105000198                                                                           
354NFE793077  04052017000126000000000005580010829506000161                                                                                                                
353MATRIZ    1    216482      00000000000131506052017108295060001611749722500010667506105000198                                                                           
354NFE793994  05052017000253400000000003330810829506000161                                                                                                                
353MATRIZ    1    218548      00000000001086910052017108295060001611043026600012867506105000198                                                                           
354NFE795715  09052017001548100000000027516710829506000161                                                                                                                
353MATRIZ    1    219998      00000000000753110052017108295060001610958459900012267506105000198                                                                           
354NFE796326  09052017000620600000000019067810829506000161                                                                                                                
353MATRIZ    1    221331      00000000001126713052017108295060001611118939200052967506105000198                                                                           
354NFE797862  11052017001504800000000028525210829506000161                                                                                                                
353MATRIZ    1    221332      00000000001486713052017108295060001611118939200079067506105000198                                                                           
354NFE797863  11052017001197900000000037638310829506000161                                                                                                                
353MATRIZ    1    217621      00000000000283907052017108295060001611281635500021367506105000198                                                                           
354NFE794321  06052017000214600000000007188010829506000161                                                                                                                
353MATRIZ    1    217642      00000000000302507052017108295060001611281635500021367506105000198                                                                           
354NFE794398  06052017000396200000000007658410829506000161                                                                                                                
353MATRIZ    1    221211      00000000000078813052017108295060001611041332800019367506105000198                                                                           
354NFE797312  11052017000125100000000001995610829506000161                                                                                                                
353MATRIZ    1    221203      00000000000132313052017108295060001611041332800019367506105000198                                                                           
354NFE797181  10052017000084000000000003350410829506000161                                                                                                                
353MATRIZ    1    217649      00000000000560007052017108295060001610292816200011067506105000198                                                                           
354NFE794406  06052017002358600000000014179610829506000161                                                                                                                
353MATRIZ    1    215273      00000000000757404052017108295060001610292816200011067506105000198                                                                           
354NFE793292  04052017000420000000000019176010829506000161                                                                                                                
353MATRIZ    1    216400      00000000000466406052017108295060001611960876300014867506105000198                                                                           
354NFE793717  05052017000502900000000011808010829506000161                                                                                                                
353MATRIZ    1    215180      00000000000870304052017108295060001611044970600019967506105000198                                                                           
354NFE792909  04052017001782600000000022033810829506000161                                                                                                                
353MATRIZ    1    218368      00000000000047410052017108295060001616248893700134967506105000198                                                                           
354NFE795191  08052017000027500000000001201010829506000161                                                                                                                
353MATRIZ    1    221265      00000000000173913052017108295060001616248893700134967506105000198                                                                           
354NFE797644  11052017000141800000000004402810829506000161                                                                                                                
353MATRIZ    1    218359      00000000000063010052017108295060001616248893700010567506105000198                                                                           
354NFE795177  08052017000037500000000001595010829506000161                                                                                                                
