000LOGOS LOGISTICA E TRANSPORTES PLANEROGE INTERG COM. E DISTRIB. DE ALIM1209220240COB120902400                                                                           
350COBRA120914403                                                                                                                                                         
35167506105000279LOGOS LOGISTICA E TRANSPORTES PLANEJAMEN                                                                                                                 
35200000000080FAT00000338240909202215092022000000000074862FAT00000000000074300000000000000015092022000000000000000                                                    I   
353RIBEIRAO  2    176931      00000000000618825082022108295060001616075113800015467506105000279                                                                           
3547  2419921 25082022000933700000000027620510829506000161                                                                                                                
353RIBEIRAO  2    177153      00000000000056926082022108295060001616125633500040267506105000279                                                                           
3547  2420414 26082022000187700000000002538010829506000161                                                                                                                
353RIBEIRAO  2    177138      00000000000343926082022108295060001616589791000075067506105000279                                                                           
3547  2420425 26082022002271600000000015354610829506000161                                                                                                                
353RIBEIRAO  2    177072      00000000000186426082022108295060001616589791000059867506105000279                                                                           
3547  2420426 26082022001066300000000008320810829506000161                                                                                                                
353RIBEIRAO  2    177113      00000000000426926082022108295060001616589791000148967506105000279                                                                           
3547  2420441 26082022002985600000000019056610829506000161                                                                                                                
353RIBEIRAO  2    177203      00000000000129826082022108295060001610819307300015967506105000279                                                                           
3547  2420572 26082022000121100000000005793410829506000161                                                                                                                
353RIBEIRAO  2    177494      00000000000057330082022108295060001616844907300010767506105000279                                                                           
3547  2421005 29082022000069600000000002555910829506000161                                                                                                                
353RIBEIRAO  2    177588      00000000000062030082022108295060001612105186800019067506105000279                                                                           
3547  2421019 29082022000069100000000002774410829506000161                                                                                                                
353RIBEIRAO  2    177445      00000000000272630082022108295060001614354824700015067506105000279                                                                           
3547  2421114 29082022000371500000000012167810829506000161                                                                                                                
353RIBEIRAO  2    177522      00000000000023930082022108295060001614698436600014367506105000279                                                                           
3547  2421351 29082022000020700000000001065010829506000161                                                                                                                
353RIBEIRAO  2    177547      00000000001715530082022108295060001610427367500024667506105000279                                                                           
3547  2421385 29082022001404000000000076582810829506000161                                                                                                                
353RIBEIRAO  2    177826      00000000000061731082022108295060001610961975300015467506105000279                                                                           
3547  2421722 30082022000070400000000002754010829506000161                                                                                                                
353RIBEIRAO  2    177822      00000000000062031082022108295060001614232077500019467506105000279                                                                           
3547  2421815 30082022000425300000000002773410829506000161                                                                                                                
353RIBEIRAO  2    177801      00000000000037631082022108295060001616844907300010767506105000279                                                                           
3547  2421920 30082022000142200000000001677610829506000161                                                                                                                
353RIBEIRAO  2    177744      00000000001561431082022108295060001612930860400026267506105000279                                                                           
3547  2421980 30082022001925200000000069706810829506000161                                                                                                                
353RIBEIRAO  2    177716      00000000000028531082022108295060001615079495700012567506105000279                                                                           
3547  2421983 30082022000037600000000001270910829506000161                                                                                                                
353RIBEIRAO  2    177784      00000000000036631082022108295060001612187741300012967506105000279                                                                           
3547  2422059 30082022000035200000000001631910829506000161                                                                                                                
353RIBEIRAO  2    177696      00000000000033831082022108295060001615409928800012267506105000279                                                                           
3547  2422099 30082022000041800000000001502410829506000161                                                                                                                
353RIBEIRAO  2    177847      00000000000228931082022108295060001611122303300011767506105000279                                                                           
3547  2422146 30082022000329300000000010218210829506000161                                                                                                                
353RIBEIRAO  2    177720      00000000000282231082022108295060001613034976100011467506105000279                                                                           
3547  2422189 30082022001188800000000012598810829506000161                                                                                                                
353RIBEIRAO  2    177845      00000000000052631082022108295060001615404457300014667506105000279                                                                           
3547  2422231 30082022000034500000000002349110829506000161                                                                                                                
353RIBEIRAO  2    178041      00000000000191601092022108295060001611414039900011067506105000279                                                                           
3547  2422309 31082022000359300000000008553610829506000161                                                                                                                
353RIBEIRAO  2    178044      00000000000033501092022108295060001611251567700014167506105000279                                                                           
3547  2422488 31082022000069600000000001497610829506000161                                                                                                                
353RIBEIRAO  2    178123      00000000000087001092022108295060001611118939200095267506105000279                                                                           
3547  2422628 31082022000046700000000003888010829506000161                                                                                                                
353RIBEIRAO  2    178047      00000000000456801092022108295060001614335211800019167506105000279                                                                           
3547  2423076 31082022000703900000000020392710829506000161                                                                                                                
353RIBEIRAO  2    178424      00000000000098802092022108295060001615180070400034167506105000279                                                                           
3547  2423197 01092022000192000000000004409410829506000161                                                                                                                
353RIBEIRAO  2    178425      00000000000050202092022108295060001616577465500016267506105000279                                                                           
3547  2423265 01092022000117400000000002242410829506000161                                                                                                                
353RIBEIRAO  2    178415      00000000000199502092022108295060001615404234600018167506105000279                                                                           
3547  2423288 01092022000961000000000008905210829506000161                                                                                                                
353RIBEIRAO  2    178411      00000000000089502092022108295060001610244145800010167506105000279                                                                           
3547  2423344 01092022000417600000000003998610829506000161                                                                                                                
3550029000000002170998                                                                                                                                                    
